:020000040800F2
:1000000020100020490200080F4E0008D5410008CA
:100010000D4E000803150008DD590008000000001F
:10002000000000000000000000000000E74E000893
:100030000516000800000000E54E0008494F0008C2
:1000400063020008630200086302000863020008FC
:1000500063020008630200086302000863020008EC
:100060006302000863020008630200082515000807
:10007000311500083D1500086302000863020008FE
:1000800049150008630200086302000863020008C3
:1000900063020008630200086302000863020008AC
:1000A00063020008595000083D5000086302000830
:1000B000630200086302000863020008630200088C
:1000C000630200086302000863020008630200087C
:1000D00063020008E15800083159000881590008FE
:1000E000630200086302000863020008630200085C
:1000F000630200086302000863020008630200084C
:10010000630200086302000863020008630200083B
:100110000D5400085D540008755000086302000883
:100120006302000863020008551500086302000816
:10013000630200086302000863020008630200080B
:1001400063020008630200086302000863020008FB
:10015000630200086302000863020008D159000826
:1001600063020008630200086302000863020008DB
:100170006302000863020008630200080000000038
:10018000630200086302000800F002F800F04CF877
:100190000AA090E8000C82448344AAF10107DA45E2
:1001A00001D100F041F8AFF2090EBAE80F0013F0E8
:1001B000010F18BFFB1A43F00103184780620000CB
:1001C000A0620000103A24BF78C878C1FAD852075C
:1001D00024BF30C830C144BF04680C6070470000C1
:1001E0000023002400250026103A28BF78C1FBD840
:1001F000520728BF30C148BF0B607047662906F020
:10020000C080642900F0CC80002070471FB506F044
:10021000AEF800F039FC04000020002105F0DEFEFD
:10022000E0601FBD10B510BD00F02EFD1146FFF7B8
:10023000EDFF05F0FFFC00F04CFD03B4FFF7F2FF0B
:1002400003BC00F08FFD00000948804709480047C3
:10025000FEE7FEE7FEE7FEE7FEE7FEE7FEE7FEE776
:10026000FEE7FEE704480549054A064B70470000D3
:10027000E14F000889010008200A0020201000201A
:10028000200C0020200C002053EA020C00F06980B2
:100290002DE9F04B4FF00006002B1FBFB3FA83F59A
:1002A00003FA05F424FA05F65E4012BF1643B2FACB
:1002B00082F502FA05F4C5F120051EBF22FA05FCFD
:1002C00044EA0C04203556EA044C4FEA144418BFA3
:1002D000641C4FF000084FF00009904271EB030CD2
:1002E00039D3002919BFB1FA81F701FA07F6B0FA3C
:1002F00080F700FA07F6C7F120071EBF20FA07FCB7
:1003000046EA0C062037B6FBF4FCA7EB0507103FC6
:1003100007F01F0BCBF120060CFA0BFB2CFA06F6AC
:1003200044BFB3460026202FA4BF5E464FF0000B0B
:100330005BEA060C08BF4FF0010B19EB0B09ABFB96
:10034000027C48EB0608C01B06FB02CC0BFB03CC6F
:1003500071EB0C01C1E70B46024641464846BDE839
:10036000F08B13B54FF000004FF00001AFF30080A9
:10037000BDE81C40704700000FB41CB5074B06AA2F
:100380007B4469460090059800F065FB00206946B3
:1003900000F074FB1CBC5DF814FB0000F9060000C3
:1003A0002DE9F0410646002410687529314616A54E
:1003B00010D0AFF30080002802DA404213A507E016
:1003C00031688A0701D512A502E0490704D511A5B5
:1003D000012401E0AFF3008000210A2206F1240786
:1003E00009E0B0FBF2FCB0FBF2F302FB1C00303082
:1003F00078541846491C0028F3D123462A46304633
:10040000BDE8F04100F0B9B8000000002D00000088
:100410002B000000200000002DE9F0474FF0000AFB
:1004200089460446C0F820A02046E1688847002895
:1004300076D0252806D0D4E901219047206A401CB7
:100440002062F1E7E168204600258847C4F81CA037
:1004500006460027C4F818A02A2E09D0304605F019
:10046000E1FB38B304EB8708303EC8F8186019E0A8
:1004700059F8041B204604EB87029161E168884724
:10048000012F064618D1E069002820DA25F0200562
:100490001DE0D8F8180000EB800006EB4000303873
:1004A000C8F818002046E1688847064605F0BAFB00
:1004B0000028EED1012F0AD02E2E08D12046E16867
:1004C00088477F1C0646022F45F02005C4DBA06943
:1004D000002803DA404245F00105A061E80701D099
:1004E00025F01005B6B1A6F14100192802D8203632
:1004F00045F400654A463146204625604D46FFF7E3
:100500007DFE58B1012806D0ED1D25F0070000F151
:10051000080989E704E005F1040985E730468AE720
:10052000206ABDE8F0874FF0000200B513469446FC
:100530009646203922BFA0E80C50A0E80C50B1F13B
:100540002001BFF4F7AF090728BFA0E80C5048BF4F
:100550000CC05DF804EB890028BF40F8042B08BFED
:10056000704748BF20F8022B11F0804F18BF00F8E9
:10057000012B70477047704770472DE9F0470D46D3
:1005800099469246044600F124080168880604D57D
:10059000E06921F01001216000E00120A84201DDA6
:1005A000471B00E00027A1697A1902EB0900081A2D
:1005B000A0612078C00602D42046AFF30080002658
:1005C00008E0D4E901211AF806009047206A401C8F
:1005D000761C20624E45F4DB2078C0060AD5204602
:1005E000AFF3008006E0D4E9012130209047206A73
:1005F000401C2062381EA7F10107F4DC07E0D4E9B3
:10060000012118F805009047206A401C2062281E2E
:10061000A5F10105F3DC2046AFF300802078000649
:1006200002D50220BDE8F0870120FBE770472DE9E5
:10063000FF4F0C461E464FF0FF378BB0D2E900014A
:10064000DDF860800A908A46C1F30A5505B93D4637
:10065000002108464FF00000BAF1000F00F44000FE
:1006600005DA00EB80004FF4400101EA50004FEA48
:100670009059B9F1010F00DDB9460A9850EA4A00D5
:100680000ED044F61050A5F2FF3545432F14B8F1B3
:10069000000F1ED07542291E1EDDC9F100021CE0AC
:1006A000B8F1010F4FF0000001D0302103E0F24318
:1006B00005E02154401CB042FBDB30460022002103
:1006C00021540B99C1F80880C1E900200FB0BDE8A2
:1006D000F08FBD1B6D1CDEE74A4600DA694206A8B2
:1006E00000F05CFA06AB93E8070003AB83E8070071
:1006F00050460A9900F03DFB8DE80700A0F5005038
:100700001F3800900398002D0ADD42F21F014A466F
:100710000844002303A90390684600F0A6FD09E001
:10072000A0F500504A461F38002303A903906846ED
:1007300000F0B0FD8DE807000004000C03D04FF07E
:10074000FF30410800E01046B8F1000F03D000224E
:10075000009215461EE0751E05D400F099F930325E
:1007600062556D1EF9D5B3460122084302D000221E
:100770007F1C04E02078302801D100227F1E002A4F
:10078000099784D01DE0112D07DA00F081F930328D
:1007900062556D1C50EA0102F5D1084302D0009861
:1007A000C8B10EE00021681E05E0235C625C635462
:1007B0002254401E491C8142F7DBAB46A81B401E59
:1007C0000990002004F80B000B98099AC0F80880E3
:1007D000C0E9002B7AE711264FF0000857E72DE912
:1007E000F04F88460446D21D22F0070191B0D1E9AE
:1007F0000001CDE90A0105F0EDF902460B98C00FA2
:1008000001D02D2007E02068810701D52B2002E0D0
:10081000202101EAC000032A099001D0072A05DB44
:1008200003464146204600F079F90BE12078800626
:1008300001D5E06900E00620B8F1650F814606D0D9
:10084000B8F1660F18D0B8F1670F70D131E0002011
:10085000B9F1110F009001DB112301E009F101034F
:100860000AAA01A90CA8FFF7E2FEDDE90C70002638
:1008700009F10105834647E001204B4600904FF007
:1008800000470AAA01A90CA8FFF7D1FEDDE90DB0C7
:100890000C995D46002610B909F101000D18B9EB5D
:1008A000050003D4C0F1FF3609F10105A5EB0900ED
:1008B0002BE0B9F1010F01DA4FF001090020B9F185
:1008C000110F0090484601DD112300E003460AAAFB
:1008D00001A90CA8FFF7ABFEDDE90C704D46002620
:1008E0008346207800070AD4AB4500DA5D4601A8AC
:1008F000012D04DD411911F8011C302907D04F45A5
:1009000002DA17F1040F04DA012082460FE06D1EAF
:10091000EEE7002F02DCED1B3E4403E0781CA8420A
:1009200000DD7D1CB81B00F1010A4FF00047207864
:10093000000703D4AA4501DB4FF0FF3A0021B7F1CD
:10094000004F0DF143088DF8431024D002202B23D3
:10095000002F01DA7F422D230A21021EA0F101009F
:1009600000DC5FB197FBF1FC97FBF1F201FB1C7C13
:1009700017460CF1300C08F801CDEEE7A8F10100A4
:1009800003702188090501D5452100E06521A0F10A
:10099000010800F8011C09980FA9A1EB0807FF1D29
:1009A00000B10120411901EBEA70A1693844081A2D
:1009B000401EA0612078C00602D42046AFF300801C
:1009C000099828B1D4E901219047206A401C20628F
:1009D0002078C00622D52046AFF300801EE0002E0E
:1009E00004DBB34502DD01A8805D00E03020D4E9DE
:1009F00001219047206A401C2062761CAAF1010068
:100A00005FEA000A0AD100F03FF8C0680168405C64
:100A1000D4E901219047206A401C2062281EA5F1DC
:100A20000105DCDC07E0D4E9012118F8010B90474F
:100A3000206A401C2062381EA7F10107F3DC204623
:100A4000AFF30080032011B041E6000001694A1CA9
:100A500002610878704700B58FB0CDE901310021FF
:100A6000059105497944CDE9031011466846FFF721
:100A7000D3FC0FB000BD0000E5FFFFFF0A6802F8DD
:100A8000010B0A607047000000487047DC09002035
:100A900030B5B0F10A024FEA900E71F100034EEA50
:100AA000817EB0EB0E0061EB91014FEA101E4EEA21
:100AB000017E10EB0E0041EB11114FEA102E4EEAB1
:100AC000016E10EB0E0041EB11214FEA104E4EEA81
:100AD000014E10EB0E0041EB1141401841F10001B5
:100AE0004FEAD00040EA41704FEAD10110EB800597
:100AF0004FEA810444EA907444EB01046D1944EB1D
:100B00000404521BA3414FF0000348BF0A3200D532
:100B100030BD401C41F1000130BD00002DE9F04125
:100B20001F46044603260168072A01F4006004DB1F
:100B300008B116A505E016A503E008B115A500E06B
:100B400015A521F010002060A069C01EA0610FB1A2
:100B5000401EA0612046AFF300804FB1D4E90121CF
:100B600038469047206A401C2062C01C206206E084
:100B7000206AFAE7D4E9012115F8010B9047761EA7
:100B8000F8D22046AFF30080BDE8F0814E414E0020
:100B90006E616E00494E4600696E66002DE9F047B1
:100BA000814616468AB0354878440DC88DE80D0058
:100BB00032487844801C03AC0DC884E80D0041F62F
:100BC0009B300844372190FBF1F290FBF1F5A5F141
:100BD000800501FB12041B3C02D56442012000E0A9
:100BE0000020DFF898A080460027FA44AAF1BE0A48
:100BF0000EE0E0070AD03246684607EB47010123C2
:100C00000AEB810100F046FB8DE8070064107F1CB1
:100C1000002CEED1194F7F44AE3F19E0E80715D004
:100C200007EB04100DF1180A90E80E008AE80E0098
:100C3000C068F04201D1981908903246012306A9F4
:100C400003A800F027FB03AB83E807006D10641CCA
:100C5000002DE3D14FF0010332466946B8F1000F91
:100C600003A802D000F001FB01E000F013FBC9E98A
:100C70000001C9F808200AB0BDE8F08778580000E4
:100C800000487047BC0900207546FFF7F9FFAE46E3
:100C900005006946534620F00700854618B020B588
:100CA000FFF7E0FABDE820404FF000064FF00007E4
:100CB0004FF000084FF0000B21F00701AC46ACE804
:100CC000C009ACE8C009ACE8C009ACE8C0098D4671
:100CD000704710B50446AFF300802046BDE81040D1
:100CE000FFF7ABBA4FF0013C50F8042B51F8043B2E
:100CF0009A4221D1A2EB0C03934313EACC1317D1F0
:100D000050F8042B51F8043B9A4215D1A2EB0C0386
:100D1000934313EACC130BD150F8042B51F8043B46
:100D20009A4209D1A2EB0C03934313EACC13DBD014
:100D30004FF00000704700BFD01A01BAB1FA81F13C
:100D400001F0180122FA01F0CB40C1F12001DBB221
:100D5000C0B2C01A2CFA01F3D11A914311EAC3119F
:100D6000E6D1704701491820ABBEFEE7260002001D
:100D700070475FEA400C08BF91F0000F4FEA8C23E8
:100D80004FEAC12243EA51514FEA1C5018BF00F507
:100D9000F0404FEA300018BF41F000415FEA6C5C60
:100DA00000F02980BCF1FF3F08BF40F08040704751
:100DB000130C06BF12044FF0100C4FF0000C130E72
:100DC00004BF12020CF1080C130F04BF12010CF146
:100DD000040C930F04BF92000CF1020CD30F04BF5C
:100DE00052000CF1010C11464FF00002A0F11F005F
:100DF000A0EB0C00704711F0004F08BF704731F0B6
:100E000000413FF4D5AF0B0C06BF09044FF0100CA6
:100E10004FF0000C0B0E04BF09020CF1080C0B0F75
:100E200004BF09010CF1040C8B0F04BF89000CF105
:100E3000020CCB0F04BF49000CF1010CCCF12003D4
:100E4000A0EB0C0022FA03F302FA0CF241EA0301D0
:100E500000F10100704720F07F4C80EA030023F08E
:100E60007F47ACEB070303F57C5300F0004003F130
:100E7000FF032DE980494FEA154B09B44FEA1443AB
:100E800025EA0B4E24EA03480FF2042606EB13274B
:100E900049083E785FEA320203FB0667C7F50007A0
:100EA00007FB06F64FEA54374FEAD64606F102062C
:100EB00007FB066CCCF1005C4FEA1C472CEA074CA0
:100EC00007FB06F40CFB06F504EB15464FEA9616F5
:100ED00034BF00204FF000404FEAD13706FB07FC3B
:100EE0004FEA1C4C0CFB0BF7D21B03FB0CF761EB1E
:100EF00007010CFB0EF7B0EB074072EB17420CFB3F
:100F000008F734BFA2EB0742B2EB074261EB17418F
:100F10004FEA0C444FEA910706FB07FC4FEA1C4CD2
:100F20000CFB0BF7B0EBC74072EB573203FB0CF72F
:100F300034BFA2EBC742B2EBC74261EB57310CFBA7
:100F40000EF7B0EBC70072EB57720CFB08F734BF1B
:100F5000A2EBC702B2EBC70261EB5771039F4FEAE6
:100F6000816141EA921104EBCC044FEAD1374FEA98
:100F7000826206FB07FC42EA90124FEA80604FEA69
:100F80001C4C0CFB0BF7D21B03FB0CF761EB0701AE
:100F90000CFB0EF7B0EB074072EB17420CFB08F7A7
:100FA00034BFA2EB0742B2EB074261EB17414FEAB5
:100FB0008C554FEA910704EB9C2406FB07FC4FEA93
:100FC0001C4C0CFB0BF7B0EBC74072EB573203FB2A
:100FD0000CF734BFA2EBC742B2EBC74261EB57310B
:100FE0000CFB0EF7B0EBC70072EB57720CFB08F767
:100FF00034BFA2EBC702B2EBC70261EB577115EB2E
:101000004C254FEA816141EA92114FEA82624FEA30
:10101000D13742EA901206FB07FC44F100044FEA84
:1010200080604FEA1C4C0CFB0BF7D21B03FB0CF748
:1010300061EB07010CFB0EF7B0EB074072EB1742B8
:101040000CFB08F734BFA2EB0742B2EB074261EB9F
:10105000174115EB1C154FEA813141EA92414FEAE5
:10106000823242EA90424FEA80304FEA0C7644F1F5
:10107000000448EA03434EEA0B484FF0000EB2EB7F
:10108000080C71EB030724BF624639464EEB0E0E87
:101090004FF0000B0018524149414BEB0B0BB2EBE8
:1010A000080C71EB03077BF1000B24BF6246394645
:1010B0004EEB0E0E4FF0000B0018524149414BEB26
:1010C0000B0BB2EB080C71EB03077BF1000B24BF99
:1010D000624639464EEB0E0E51EA020718BF46F043
:1010E000010616EB0E7655F1000254F1000103D50E
:1010F000BDE88901BDE80088BDE88901BDE8004878
:10110000B619524141EB0101A3F101037047808000
:101110007F7E7D7C7B7A7978777676757473727151
:1011200071706F6E6E6D6C6C6B6A6A696868676609
:1011300066656464636362616160605F5F5E5E5D9B
:101140005D5C5C5B5B5A5A5959585857575656550F
:1011500055555454535352525251515050504F4F71
:101160004F4E4E4D4D4D4C4C4C4B4B4B4A4A4A49C1
:101170004949484848474747474646464545454404
:101180004444444343434342424242414141002B91
:101190009C4630D477002BD01CB54FEA370703B4F8
:1011A0004FF010004FF01001BAF1000F06D0BCF163
:1011B000000FDCBF40F0080040F008014FF00000D5
:1011C0000FBCBDE810400BF1010BBBF1010F08BFD4
:1011D0005FEA170722BF12F1010211F101014FF07E
:1011E000004143F1000300F0004043EA0000704773
:1011F000F9D35708D0E746EA064613F1400F4FEA05
:1012000016461FDD13F1200FDFBF16430A460021EB
:1012100020335B42BED0C3F1200746EA064602FAFD
:1012200007F74FEA164646EA0706C3F1200722FAF7
:1012300003F201FA07F721FA03F14FF0000342EA43
:101240000702A7E746EA020646EA06464FEA1646BE
:1012500046EA0106BCBF46EA0646360C4FF00003DC
:101260004FF000024FF0000194E72DE9804C9A46C0
:10127000934670B491E8380007C831EA400C48BF83
:1012800034EA430C03D5FFF7E6FDFFF780FFF0BC1F
:10129000BDE8008C2DE9804C9A46934670B491E8E5
:1012A000380007C810F0804F08BF13F0804F03D1FB
:1012B00000F005F8FFF76BFFF0BCBDE8008C20F0F4
:1012C0007F4780EA030023F07F4C07EB0C03A3F574
:1012D0007C5300F00040A3F1FE0392F0000F00F0F9
:1012E000B38095F0000F00F077802DE901494FEAB7
:1012F00011404FEA144621EA004800FB06FC24EAAC
:10130000064708FB06F607FB08F800FB07F718EB93
:1013100006484CEB164C4FEA124B18EB07484FEAC5
:1013200015464CEB174022EA0B4E0BFB06FC25EA58
:1013300006470EFB06F607FB0EFE0BFB07F71EEB40
:10134000064E4CEB164C4FF000061EEB074E4CEBD6
:10135000174B18EB0B0840F1000018EB0E0B58EB85
:10136000000840F100008F1A4FF000013CBFC94354
:10137000661B14BFB5EB040C00213CBFC943F61B30
:101380004FEA17444EEA8E0E27EA04454FEA1C47FF
:1013900004FB07622CEA074C05FB07F70CFB05F67C
:1013A00004FB0CFC16EB074642EB174216EB0C460F
:1013B00042EB1C421BEB060658EB0202414146EA97
:1013C0009E0601D5BDE80189B619524141EB0101E4
:1013D000A3F10103BDE801894FEA14454FEA114723
:1013E00024EA054621EA074C05FB07F406FB07F74C
:1013F0000CFB06F105FB0CFC11EB074144EB174419
:101400004FEA124711EB0C4144EB1C4422EA074C13
:1014100005FB07F206FB07F70CFB06F605FB0CFCC9
:1014200016EB074642EB174216EB0C4642EB1C4507
:101430006A1854F1000148BF7047B619524141EB98
:101440000101A3F10103704795F0000F37D04FEA77
:1014500011424FEA144721EA024624EA074C02FBF4
:1014600007F106FB07F70CFB06F402FB0CFC14EB80
:10147000074441EB17414FEA154714EB0C4441EB8D
:101480001C4125EA074C02FB07F506FB07F70CFB9E
:1014900006F602FB0CFC16EB074645EB174516EB70
:1014A0000C4645EB1C42121951F1000148BF704730
:1014B000B619524141EB0101A3F1010370474FEA14
:1014C00014454FEA114724EA054621EA074C05FB7B
:1014D00007F106FB07F70CFB06F24FF0000605FBD1
:1014E0000CFC12EB074241EB174112EB0C4251EBA3
:1014F0001C4148BF7047921841EB0101A3F1010361
:101500007047FEE70249E6200968886370470000DB
:10151000240500200249B420096888637047000050
:1015200024050020014800F01DB900003C080020FF
:10153000014800F017B900005C090020014800F0E4
:1015400011B90000DC070020014800F00BB90000D1
:10155000FC080020014800F005B900009C080020AC
:1015600001681823CAB2103AB2FBF3F2054B6FF3CD
:101570000901032A9B5CC36500D9091D81650846E2
:10158000704700008663000810B5014600208B6993
:101590008A6A4FF0C07453B1B3F5005F15D072B1D1
:1015A000012A0CD0022A0AD0032A09D104E01AB178
:1015B000012A06D0022A03D1C96AC90100D5012037
:1015C00010BDC96AA142FAD010BD002AF7D0012A85
:1015D000F2D0022AF3D0032AF3D010BD30B504684C
:1015E000256825F480252560046863608368402BA6
:1015F000036803D099600068C26030BD9A600068DB
:10160000C16030BD704772B6FEE700000448016853
:10161000486A044A00B2106000224A627047000023
:10162000740300201800002004480168486A044A36
:1016300000B2506000224A6270470000BC030020E4
:101640001800002004480168486A044A00B290600B
:1016500000224A62704700000404002018000020A5
:1016600004480168486A044A00B2D06000224A6215
:10167000704700002C030020180000200849502269
:101680000B689A630B689622DA6309680864054957
:1016900064200968886304493C20096848637047EE
:1016A0004C040020FC050020240500202DE9F04119
:1016B0000446876D00F0D8FA064694F835000025F8
:1016C000022806D08020606584F834500120BDE8EF
:1016D000F0812068016821F01601016020684169ED
:1016E00021F080014161206C08B9A06C20B1206814
:1016F000016821F0080101602068016821F0010102
:1017000001600CE000F0B0FA801B052807D920200A
:101710006065032084F8350084F83450D7E72068EA
:101720000068C007EED194F85C103F208840B86094
:10173000012084F8350084F834500020C7E790F881
:101740003510022903D08021416501207047052111
:1017500080F835100068016821F001010160002067
:10176000704700002DE9F84304464FF00009CDF81A
:10177000009063484FF41651A56D0068B0FBF1F777
:101780002E6894F85C10082000FA01F131420FD065
:1017900021680A6852070BD50A6822F004020A6021
:1017A00094F85C108840A860606D40F001006065AE
:1017B00094F85C104FF0010808FA01F0304208D0AC
:1017C00021684969090604D5A860606D40F00200EF
:1017D000606594F85C1004208840304208D021688D
:1017E0000968890704D5A860606D40F00400606551
:1017F00094F85C1010208840304218D021680968A5
:10180000090714D5A86020680168490304D5006859
:10181000000308D5A16C07E00168C90503D401687D
:1018200021F008010160216C09B12046884794F835
:101830005C1020208840304231D021680968C906F8
:101840002DD5A86094F8350005282068016806D0D9
:10185000490347D5006800031DD4616C1CE021F0EA
:10186000160101602068416921F080014161206C0E
:1018700008B9A06C20B12068016821F0080101605E
:1018800094F85C103F208840A86084F8358084F884
:101890003490216D1FE0E16B09B120468847606DEF
:1018A00000282BD0606DC00714D0052084F83500C7
:1018B0002068016821F0010101600098401C00903F
:1018C000B84203D820680068C007F6D184F8358094
:1018D00084F83490E16C002910D001B02046BDE8B6
:1018E000F04308470168C905D5D4016821F010010B
:1018F000016084F8358084F83490CCE7BDE8F88343
:10190000040100202DE9F041044600F0ADF906463F
:101910005CB1022084F83500002584F8345020683A
:10192000016821F0010101600DE00120BDE8F081B6
:1019300000F09AF9801B052805D920206065032056
:1019400084F83500F2E720680068C007F0D122680B
:10195000116820480140D4E901031843D4E9033653
:101960003343184363691843A3691843E369184371
:10197000236A18430843616A042903D1D4E90B138D
:1019800019430843106020684069666A20F0070127
:1019900030460E43012704280CD1A06A0643E06AB2
:1019A00040B12046FFF7F0FD20B14020606584F88B
:1019B0003570BAE7206846612046FFF7D1FD94F8FC
:1019C0005C203F2191408160656584F8357000207E
:1019D000ACE700003F8010F02DE9F0410446866D31
:1019E00090F83400002501280DD0012084F834003F
:1019F00094F835700020012F07D084F834000225B8
:101A00002846BDE8F0810220FBE7022784F8357004
:101A100060652046FFF7E2FD94F85C103F208840A7
:101A2000B0602068016841F016010160206C20B1AF
:101A30002068016841F0080101602068016841F0F8
:101A400001010160DCE7000070B5044600F00CF90C
:101A50000546601C02D004480078044400F004F9F4
:101A6000401BA042FAD370BDF80000202DE9F84FCA
:101A7000DFF8BCA1002201250AF1040B03264FF078
:101A80000F090BF1040E00BF0B6805FA02F42340A6
:101A9000A34270D10F7907F00307012F01D0022F65
:101AA00016D187684FEA420806FA08FC27EA0C07B5
:101AB000D1F80CC00CFA08FC4CEA070CC0F808C0BE
:101AC0004768A7430C79C4F3001494403C43446036
:101AD0000C79E443A4070AD0C4684FEA420C06FA22
:101AE0000CF7BC438F6807FA0CF72743C7600C79E3
:101AF00004F00304022C12D1D40800EB840CDCF8AF
:101B000020405707FF0E09FA07F824EA0804D1F825
:101B1000108008FA07F848EA0408CCF82080046826
:101B20004FEA420C06FA0CF7BC430F7907F00307A3
:101B300007FA0CF7274307604C6814F4403F70D055
:101B40003C4C276847F480472760246822F003074D
:101B500004F480440094384C07EB040CDCF808488B
:101B600097074FEA177809FA08F7BC43334FB84292
:101B700002D1002724E054E0314FB84201D10127BF
:101B80001EE0304FB84201D1022719E02E4FB84273
:101B900001D1032714E02D4FB84201D104270FE0F3
:101BA0002B4FB84201D105270AE02A4FB84201D194
:101BB000062705E0284FB84201D1072700E0082793
:101BC00007FA08F72743CCF80878DAF800405746B8
:101BD000D1F804C09C435FEACC3C00D51C433C6078
:101BE000DBF800405F46D1F804C09C435FEA8C3CC0
:101BF00000D51C433C60DEF800407746D1F804C0B5
:101C00009C435FEACC2C00D51C433C60084F0C374A
:101C10003C68D1F804C09C435FEA8C2C00D51C437F
:101C20003C60521C102AFFF42FAFBDE8F88F000073
:101C3000003C0140443802400030014000000240B6
:101C40000004024000080240000C02400010024064
:101C50000014024000180240001C02400AB18161D9
:101C600070470904FBE700000148806870470000E6
:101C7000F8000020024881680278114481607047B2
:101C8000F80000200B4810B5016841F400710160B4
:101C9000016841F480610160016841F48071016074
:101CA000032000F06FF80F2000F006F800F024F891
:101CB000002010BD003C024070B50D4D04464FF4AD
:101CC0007A712878B1FBF0F00A490968B1FBF0F0AD
:101CD00000F0A8FB48B9102C07D200222146501E64
:101CE00000F030F800206C6070BD012070BD000075
:101CF000F8000020040100200A4808B5016841F4FA
:101D000080410160006800F4804000900548001F99
:101D1000016841F080510160006800F0805000903F
:101D200008BD000044380240002809DB00F01F0213
:101D3000012191404009800000F1E020C0F800112D
:101D400070470000F0B40E4B1B680C46C3F302232F
:101D5000C3F10705042D00D90425191D072901D257
:101D6000002300E0DB1E012606FA05F1491E214092
:101D700099409E40761E16403143F0BC03F042BFAE
:101D80000CED00E0064900F0070208684FF6FF037B
:101D9000184040EA0220034A1043086070470000E0
:101DA0000CED00E00000FA052DE9F8430546006857
:101DB0004FF00109C1074FF0000601D1400727D5B8
:101DC000DFF80C81C8F86860FFF74EFF0746414C0A
:101DD00005E000BFFFF748FFC01B022857D8206866
:101DE0000001F7D468688101287A41EA0070394916
:101DF00084310860C8F86890FFF736FF074604E0B2
:101E0000FFF732FFC01B022841D820680001F7D538
:101E10002878800752D52F484030016841F0805122
:101E2000016000682C4C00F080500090206840F465
:101E300080702060FFF718FF074604E0FFF714FFEB
:101E4000C01B022823D82068C005F7D5214C703468
:101E5000206810F4407020D0A98901F440718142BB
:101E60001BD020681D4920F44070C1F800900E601E
:101E700020602068C00710D0FFF7F6FE064641F24A
:101E8000883707E0FFF7F0FE801BB84202D9032035
:101E9000BDE8F88320688007F4D5E9680D48C1F3F0
:101EA00001220830032A0BD0016821F4F8110160E7
:101EB0002068A989C1F30B01084320600020E7E7EF
:101EC0000268074B22F4F81219400A430260EFE758
:101ED000000047420038024000700040400E474278
:101EE000FFFCFF0F2DE9F0470E46050065D0DFF837
:101EF0001481D8F80000F7B200F00700B04207D212
:101F000088F80070D8F8000000F00700B04254D103
:101F100028683D4C810712D5400703D5206840F45E
:101F2000E05020602878000703D5206840F4604026
:101F300020602068A96820F0F0000843206028781D
:101F4000C0072DD0304968680839012812D002280E
:101F500013D0032811D00968890700292DDA2168D8
:101F600021F0030101432160FFF77EFE814641F22B
:101F7000883A0EE009688903EFE709688901ECE710
:101F8000FFF772FEA0EB0901514502D90320BDE81D
:101F9000F0872068696800F00C00B0EB810FEFD18A
:101FA000D8F80010404601F00701B14207D9077088
:101FB000006800F00700B04201D00120E7E7287870
:101FC000400705D52068E96820F4E0500843206008
:101FD0002878000706D52068296920F4604040EA87
:101FE000C100206000F038F82168084AC1F30311ED
:101FF000515CC8400649086006480068FFF75CFE6F
:102000000020C4E7003C0240083802408E6300080C
:1020100004010020FC00002004480549006809680C
:10202000044AC1F38221515CC8407047040100207A
:10203000083802409E6300080448054900680968A2
:10204000044AC1F34231515CC8407047040100208A
:10205000083802409E630008154810B5006810F06B
:102060000C02144813D04110042A0FD0082A0ED1B4
:102070000F4C241F2268236802F03F025B0207D541
:102080002068C0F38810A0FB010106E0084610BDDF
:102090002168C1F38811A1FB00010023FEF7F4F8C9
:1020A0002168C1F30141491C4900B0FBF1F010BDAA
:1020B000083802400024F4002DE9F84F04006ED0E7
:1020C0002078DFF84C93C007A9F104054AD009F144
:1020D00004000168C1F38101012908D00068C0F340
:1020E000810002280AD1D9F80000400206D52868EC
:1020F000800337D560680028E1D033E06068B0F530
:10210000803F10D0B0F5A02F286810D020F4803088
:102110002860286820F4802028606068A8B1FFF754
:10212000A3FD06460DE0286840F48030F4E740F453
:1021300080202860F7E700BFFFF796FD801B64282A
:1021400073D828688003F7D50CE0FFF78DFD0646AD
:1021500005E000BFFFF788FD801B6428F0D82868E1
:102160008003F7D42078DFF8AC8280074FF0000AB4
:102170003ED5A748001D016811F00C0F08D000687B
:10218000C0F3810002280BD1D9F80000400207D427
:102190002868800716D5E068012800D112E033E1F5
:1021A000E068B8B10120C8F80000FFF75DFD064601
:1021B00005E000BFFFF758FD801B0228C0D8286843
:1021C0008007F7D52868216920F0F80040EAC100AF
:1021D00028600DE0C8F800A0FFF746FD064604E0C1
:1021E000FFF742FD801B02281FD828688007F7D41C
:1021F0002078000722D5864F87486169703771B112
:1022000001210160FFF730FD064604E0FFF72CFDD9
:10221000801B022809D838688007F7D50EE0C0F87F
:1022200000A0FFF721FD064605E082E0FFF71CFD58
:10223000801B02287DD838688007F7D420784007B3
:1022400068D5DFF8CCB100270BF13C0BDBF80000C0
:10225000C0000BD4DBF8001041F08051CBF8001027
:10226000DBF80000012700F0805000906B4E3068D2
:10227000C00510D4306840F480703060FFF7F4FC83
:10228000009005E0FFF7F0FC0099401A022850D8B2
:102290003068C005F6D55E4EA0686C3601280FD0B8
:1022A0000528306810D020F001003060306820F040
:1022B00004003060A068B8B1FFF7D6FC00900FE0D2
:1022C000306840F00100F4E740F004003060F7E7C8
:1022D000FFF7CAFC0099411A41F28830814266D862
:1022E00030688007F4D50EE0FFF7BEFC009007E0F1
:1022F000FFF7BAFC0099411A41F28830814256D862
:1023000030688007F4D42FB1DBF8001021F0805141
:10231000CBF80010A069C8B33D49091D0968C1F395
:10232000810102294AD00228504607D0C8F860002F
:1023300000E03CE0FFF798FC04463BE04746C8F865
:102340006000FFF791FC064605E000BFFFF78CFC3C
:10235000801B02282BD828688001F7D4D4E9070114
:102360000843A16A2E4A490802EB0141626A41EA28
:102370008211084394F82C1040EA0161C9F800105A
:1023800001203866FFF770FC044606E03EE000BF1F
:10239000FFF76AFC001B022809D828688001F7D5DE
:1023A00034E000BFFFF760FC001B022802D90320C5
:1023B000BDE8F88F28688001F4D427E00128F7D021
:1023C000D9F80000E26900F4800191421CD1226A30
:1023D00000F03F01914217D147F6C071626A014097
:1023E000B1EB821F10D1A26A4FF0FF3300F44031ED
:1023F00003EB5202B1EB024F06D194F82C1000F01F
:102400007060B0EB016F01D00120D1E70020CFE771
:102410000438024000004742800E474200700040EE
:102420000000FFFF10B5401EB0F1807F01D30120F6
:1024300010BD4FF0E02460610F21601703F0E2FB54
:102440000020A06107202061002010BD7047704768
:1024500010B590F83C20012A22D0012280F83C20BF
:10246000CA688C6822F4407222434C6822F480626D
:1024700022430C6822F4006222430C6922F4805249
:1024800022434C6922F400522243C969002322F4FA
:1024900080420A4301684A6480F83C30002010BD45
:1024A000022010BD70B590F83C20012A32D00124E2
:1024B00080F83C40022280F83D2003685A689D68FD
:1024C00022F070060A6832435A60134B02689A423F
:1024D00014D0B2F1804F11D0104B9A420ED0104B55
:1024E0009A420BD00F4B9A4208D00F4B9A4205D01C
:1024F0000E4B9A4202D00E4B9A4204D1496825F005
:1025000080031943916080F83D40002180F83C1021
:10251000084670BD022070BD00000140000400406C
:1025200000080040000C0040000401400040014051
:102530000018004010B5040003D094F83D0010B11D
:1025400007E0012010BD002084F83C00204600F088
:102550001FF8022084F83D00211D206802F090FD44
:10256000012084F8460084F83E0084F83F0084F897
:10257000400084F8410084F8420084F8430084F865
:10258000440084F8450084F83D00002010BD0000A0
:102590002DE9F0438BB0044614216846FDF7C3FFD4
:1025A000002605960696079608964F4A21684F48DA
:1025B000914207D1016841F008010160006800F014
:1025C00008001DE04A4A91420ED1016841F0100115
:1025D00001600068002200F01000099011463620CA
:1025E000FFF7B0FB362044E0404C424A241D9142A4
:1025F0000AD1206840F002002060206800F002004C
:1026000009900BB0BDE8F0833B4A914207D12068A6
:1026100040F480302060206800F48030F0E7334DD3
:10262000364A103DDFF8D89002274FF00308914258
:1026300022D1206840F400302060206800F400308F
:102640000990286840F0200028602868694600F05A
:102650002000099040200090CDE90176CDE9036883
:102660004846FFF703FA002211461920FFF76AFBDC
:102670001920FFF759FBC4E7224A914229D1481596
:102680000890059705A8FFF78FFB08B1FEF7BBFF81
:10269000206840F480202060206800F480200990A9
:1026A000286840F0200028602868694600F0200073
:1026B000099080200090CDE90176CDE90368484675
:1026C000FFF7D4F9002211461A20FFF73BFB1A202E
:1026D000CFE70D4A914294D1016841F04001016079
:1026E000006800F040008BE7000C004040380240DA
:1026F000001000400004014000400140004401403F
:1027000000140240004801400018004090F83D10BD
:10271000012901D001207047022180F83D10006896
:102720001149884214D0B0F1804F11D00F4988422E
:102730000ED00F4988420BD00E49884208D00E496E
:10274000884205D00D49884202D00D49884204D103
:10275000816801F00701062903D0016841F00101F9
:1027600001600020704700000000014000040040AC
:1027700000080040000C00400004014000400140FF
:102780000018004090F83D10012901D00120704749
:10279000022180F83D100168CA6842F00102CA6057
:1027A00000681149884214D0B0F1804F11D00F4910
:1027B00088420ED00E4988420BD00E49884208D07C
:1027C0000D49884205D00D49884202D00C49884203
:1027D00004D1816801F00701062903D0016841F0A6
:1027E000010101600020704700000140000400402A
:1027F00000080040000C004000040140004001407F
:102800000018004070B5044690F83C0000250128EF
:1028100017D0012684F83C60022084F83D0020682F
:10282000826822F0770222F47F4282600868502892
:1028300038D00DDC20284FD005DC90B3102811D102
:102840004AE0022070BD302846D040280AD13BE043
:1028500060282FD070280DD0B0F5805F03D0B0F580
:10286000005F12D0012584F83D60002084F83C0010
:10287000284670BDCB68D1E90121206802F071FCC7
:102880002068816841F0770109E0CB68D1E9012136
:10289000206802F066FC2068816841F48041816014
:1028A000E1E719E0CA684968206802F02FFD50216D
:1028B000206806E0CA684968206802F079FD602156
:1028C000206802F058FCCEE7CA684968206802F028
:1028D0001DFD40212068F4E7226801461046F0E71C
:1028E0002DE9F0410D46040003D094F83D0018B1E5
:1028F00008E00120BDE8F081002084F83C0020467B
:1029000000F040F8022084F83D002068816844F21D
:10291000070291438160211D206802F0B1FB22680B
:1029200090689169166A2B68AF69034340F20330DF
:10293000814341EA0721A868EF6908434FF6FC414B
:102940008843E96840EA0720014328692F6A0001AB
:1029500040EA0730084369686D6926F0AA0646EA2E
:102960000515294393602268906154F8460B016273
:10297000012004F81F09E0752076E0762077A07525
:102980000020B7E7F0B587B0044614216846FDF78C
:10299000CAFD594922680024584802250126584F8B
:1029A0008A423FD1554914310A6842F001020A6057
:1029B000096801F001010591016841F01001016011
:1029C000016801F010010591016841F00101016009
:1029D0000068694600F001000590A8020090CDE96A
:1029E0000154CDE903464748FFF740F8E80100905D
:1029F000CDE90154CDE9034669463846FFF736F87C
:102A0000002211461920FFF79DF91920FFF78CF9D4
:102A1000002211461A20FFF795F91A20FFF784F9D2
:102A200007B0F0BD35491031B2F1804F19D0364BA7
:102A30009A4244D10A6842F002020A60096801F031
:102A400002010591016841F00101016000686946D9
:102A500000F001000590C0200090CDE901543846F7
:102A600047E00A6842F001020A60096801F00101CA
:102A70000591016841F001010160016801F0010167
:102A80000591016841F0020101600068694600F0AB
:102A90000200059020200090CDE90154CDE90346C5
:102AA0003846FEF7E3FF08200090CDE90154CDE958
:102AB00003461648694600BFFEF7D8FFB0E7144B3F
:102AC0009A42ADD10A6842F004020A60096801F036
:102AD00004010591016841F0080101600068694640
:102AE00000F0080005904FF440500090CDE90154EB
:102AF0000848CDE90345DFE70000014030380240D7
:102B000000000240001002400004004000040240A7
:102B100000080040000C024070B590F83E6004468A
:102B200090F83F5090F8423090F84320022021B1B5
:102B300004290ED0012E1BD114E0012E18D1012B37
:102B400016D184F83E0084F842000122002120685A
:102B500020E0012D0CD1012A0AD184F83F0084F82D
:102B6000430014E0012D03D1012B01D1012A01D032
:102B7000012070BD84F83E0084F83F0084F84200D4
:102B800084F8430001220021206802F0DDFA0122CE
:102B90000421206802F0D8FA2068016841F00101A0
:102BA0000160002070BD00002DE9F04706462DEDC4
:102BB000068B4FF00108002700684C4D9FED4CAB91
:102BC0009FED4D9B9FED4E8B2968DFF83C914F4C5C
:102BD000884241D1307F01283ED1207810B10128B0
:102BE00013D039E00021414800F048FDA063286877
:102BF000016A21F00A0101622868016A41F00201BC
:102C0000016284F80080A76026E00021374800F0C8
:102C100035FD29680A6A22F00A020A6229680A6AEE
:102C20000A622770A168C1EB01410844E063A16B0F
:102C3000401A206403F019FA53EC1A2B03F028FA17
:102C400053EC192B03F024FA53EC182B03F020FA61
:102C500003F0DAF9C9F800002D4D30682968884280
:102C60002DD1307F01282AD1607860B3012826D188
:102C70000021284600F002FD29680A6A22F00A02B3
:102C80000A6229680A6A0A626770E168C1EB014159
:102C90000844A064616C401AE06403F0E6F953EC68
:102CA0001A2B03F0F5F953EC192B03F0F1F953EC5F
:102CB000182B03F0EDF903F0A7F9C9F80800BDECF3
:102CC000068BBDE8F0870021114800F0D7FC606456
:102CD0002868016A21F00A0101622868016A41F04E
:102CE0000201016284F80180E760E8E76C050020DA
:102CF0008DEDB5A0F7C6B03E000000000040654075
:102D0000000000000000594084010020A4000020C1
:102D1000B40500202DE9F041054690F83C0000265E
:102D20000C46012810D0012085F83C0072B1042A1D
:102D30001CD0082A2CD00C2A50D00126002085F85F
:102D40003C003046BDE8F0810220FBE7D4E90012E8
:102D5000E368286802F0ECFA2868816921F00C0128
:102D6000816128688169A26811430FE0D4E90012EB
:102D7000E368286802F02EFB2868816921F440612D
:102D8000816128688169A26841EA02218161D5E7F1
:102D90002868D4E9002C277B016A21F48071016244
:102DA000C169036A21F0030141EA0C0121F0F00C32
:102DB00039074FF420674CEA116123F4206307EAD6
:102DC00002221A43C16102622868C16921F00C0124
:102DD000C1612868C169A268114328E02868D4E964
:102DE0000027E168036A23F480530362D0F81CC013
:102DF000036A2CF4407C4CEA07274FF6FF7C27F44B
:102E000070470CEA013139434FF4204723F4204343
:102E100007EA02321A43C16102622868C16921F4DB
:102E20004061C1612868C169A26841EA0221C161AB
:102E300084E710B5040003D094F83D0010B107E01A
:102E4000012010BD002084F83C00204600F01EF850
:102E5000022084F83D00211D206802F011F90120B4
:102E600084F8460084F83E0084F83F0084F840006F
:102E700084F8410084F8420084F8430084F8440058
:102E800084F8450084F83D00002010BD7047000024
:102E900030B50446002551B104290DD0082910D0C1
:102EA00094F8410094F84520012811D10EE094F8DF
:102EB0003E0094F84220F7E794F83F0094F843204E
:102EC000F2E794F8400094F84420EDE7012A01D09D
:102ED000012030BD022059B1042912D0082919D08F
:102EE00084F8410084F845000C2944D0012540E0D5
:102EF00084F83E0084F842002068C26842F0020272
:102F000010E084F83F0084F843002068C26842F073
:102F1000040207E084F8400084F844002068C26896
:102F200042F00802C2600122206802F00DF9144943
:102F30002068884214D0B0F1804F11D011498842E6
:102F40000ED0114988420BD01049884208D0104950
:102F5000884205D00F49884202D00F49884204D1E7
:102F6000816801F00701062903D0016841F00101E1
:102F70000160284630BD2068C26842F01002D1E7E7
:102F8000000001400004004000080040000C004028
:102F900000040140004001400018004070B50446A4
:102FA000006801694FF00005C943890715D4C1685D
:102FB000C943890711D4E91E0161012020772068E7
:102FC00080698007204602D0FFF7EEFD04E000F0A4
:102FD0000DF9204600F09FF9257720680169C94363
:102FE000490717D4C168C943490713D46FF00401D6
:102FF0000161022020772068806910F4407F20461C
:1030000002D0FFF7D1FD04E000F0F0F8204600F018
:1030100082F9257720680169C943090716D4C16878
:10302000C943090712D46FF0080101610420207719
:103030002068C0698007204602D0FFF7B5FD04E094
:1030400000F0D4F8204600F066F925772068016981
:10305000C943C90617D4C168C943C90613D46FF060
:1030600010010161082020772068C06910F4407FBA
:10307000204602D0FFF798FD04E000F0B7F82046A4
:1030800000F049F9257720680169C943C90708D1CB
:10309000C168C943C90704D1891E0161204600F0F7
:1030A0009FF920680169C943090609D4C168C94369
:1030B000090605D46FF0800101612046FFF7C6F9CB
:1030C00020680169C943490609D4C168C943490652
:1030D00005D46FF040010161204600F0E4FA206859
:1030E0000169C94389060BD4C168C943890607D45D
:1030F0006FF0200101612046BDE87040FFF7A7B9DD
:1031000070BD000030B587B0044614216846FDF755
:103110000AFA23682C4C00212C480222A34210D129
:10312000036843F001030360006800F001000590AC
:103130000F200090CDE90121CDE903126946244812
:1031400014E0244D0324AB4214D1036843F004037C
:103150000360006800F0040005904FF47070009068
:10316000CDE90121CDE9031469461B48FEF77EFC39
:1031700007B030BD194DAB4210D1036843F01003C6
:103180000360006800F01000059060200090CDE919
:103190000121CDE9031469461148E7E7114CA34228
:1031A000E6D1036843F002030360006800F0020008
:1031B0000590E0000090CDE901210920CDE9031040
:1031C00069460948D2E70000000C00403038024050
:1031D000000002400004014000080240004001409D
:1031E000001002400018004000040240704770B513
:1031F000044690F83C0000260D4601280FD001201F
:1032000084F83C006AB1042A1DD0082A2FD00C2A69
:103210003FD00126002084F83C00304670BD0220DB
:1032200070BD206801F0B0FF2068816941F008019D
:1032300081612068816921F00401816120688169D0
:103240002A69114311E0206801F0CEFF20688169EE
:1032500041F4006181612068816921F480618161AC
:10326000206881692A6941EA02218161D2E72068E8
:1032700001F0F0FF2068C16941F00801C1612068D8
:10328000C16921F00401C1612068C1692A69114343
:1032900011E0206802F012F82068C16941F4006171
:1032A000C1612068C16921F48061C1612068C16980
:1032B0002A6941EA0221C161ACE710B5040003D0DC
:1032C00094F83D0010B107E0012010BD002084F803
:1032D0003C00204600F01EF8022084F83D00211D2D
:1032E000206801F0CDFE012084F8460084F83E00FD
:1032F00084F83F0084F8400084F8410084F84200DC
:1033000084F8430084F8440084F8450084F83D00C4
:10331000002010BD7047704710B50446022249B125
:1033200004290ED0082913D094F84100012816D0A2
:10333000012010BD94F83E000128F9D184F83E2008
:103340000FE094F83F000128F2D184F83F2008E014
:1033500094F840000128EBD184F8402001E084F883
:1033600041200122206801F0EFFE16492068164A2C
:10337000884201D0904203D1436C43F4004343643C
:103380002068884213D0B0F1804F10D00F49884296
:103390000DD00F4988420AD00E49884207D090428A
:1033A00005D00D49884202D00C49884204D1816879
:1033B00001F00701062903D0016841F00101016015
:1033C000002010BD00000140000401400004004046
:1033D00000080040000C0040004001400018004080
:1033E0002DE9F0479A49054600680968994C8842DA
:1033F0002CD1DFF878C2F2EE0A0AF0EE081A9CED42
:10340000010AB2EE041A944870EE600AE76A30EEE0
:10341000411A924960EEA10A914BC643DFF84482FB
:10342000FDEEE00ADFF840926FF01302062F0DD296
:10343000DFE807F0030D3F649ECF02F045FD002258
:103440001146104601F0E8FB01F04EFDE5E0874B28
:1034500010EE101A8648D3ED000A93ED021A81424D
:1034600007DD10EE901A814203DD11EE101A814241
:1034700040DC10EE101A814211DA10EE901A8142EF
:103480000DDD11EE101A814209DDF4EEC10AF1EEF4
:1034900010FA0CDC78D3C0E001F0BEFBBDE010EE0A
:1034A000901A814270DB10EE101A81421BDA002163
:1034B00022E010EE102A824204DAB1EE040A21EE74
:1034C000000A8EE010EE100A0844984275D310EE00
:1034D000100A3044404509D200221146104601F03E
:1034E0009BFB02F0F1FC98E0002205E010EE100AD0
:1034F000484559DD002214210020CDE7B4F902002F
:103500006FF0270610B3B4F90410D4ED050A00EEED
:10351000101A3146B8EEC00A20EE801A00EE100AEA
:10352000B8EEC00AC1EE000A00EE100A94ED061AC9
:103530000020B8EEC00A41EE000ABDEEE00A10EE2F
:10354000102A626301F068FB608868BBB4F904006C
:10355000D4ED070A00EE100A00223146B8EEC00A88
:1035600020EE800ABDEEC00A10EE100A606393E7F9
:103570003849206B096907284FD2DFE800F0060DB3
:10358000161F2304280092E721E00022114610466E
:1035900001F042FB002006E000221046143101F049
:1035A0003BFB20690A30206137E0002210461439C5
:1035B00001F032FB20690A38F5E71CE000221146D1
:1035C0001E2069E7002211466FF01D0064E71422F7
:1035D0006DE7E2880AB310EE102A824206DA21EE85
:1035E000210ABDEEC00A10EE101A7DE710EE100A97
:1035F0000844984202D210EE901A75E710EE100AB5
:1036000030444045BFF472AF00221146104601F02D
:1036100003FB02F059FC0120606216492868096822
:10362000884205D1A068401CA0601248FFF76EF8E0
:10363000114928680968884207D1E068401CE060A9
:10364000BDE8F0470C48FFF761B8BDE8F08700001F
:1036500094040020A400002000002041FFFFAFBE22
:10366000FFFFB300FFFF2F00000004428401002091
:103670000000A0416C050020B40500200246002097
:1036800041B1042909D008290AD00C2901D11068B8
:10369000006C70471068406B70471068806B704713
:1036A0001068C06B70477047704710B504460068DB
:1036B000406994F83D10C0F3C010212911D180B1A8
:1036C0002068143050E8001F21F0800140E800120B
:1036D000002AF5D1606B08B1FDF7E8FF204601F044
:1036E00087FF2068406994F83E10C0F380102229BB
:1036F00011D180B12068143050E8001F21F0400142
:1037000040E80012002AF5D1A06B08B1FDF7CEFF0A
:10371000204601F046FF002010BD7047F8B5016853
:1037200004460868CA684B6910F00F0F4FF0000597
:1037300059D003F0010602F49077374365D0C107F2
:1037400005D0D10503D5216C41F001012164410769
:1037500005D5D90703D0216C41F00201216481070E
:1037600005D5D90703D0216C41F00401216401077C
:1037700007D502F02001314303D0216C41F008014C
:103780002164216C00293AD0800604D5900602D528
:10379000204601F03BFF20684069216CC0F3801097
:1037A000090700D460B3204601F0FBFE20684069A1
:1037B000400621D52068143050E8001F21F0400158
:1037C00040E80012002AF5D1A06BA8B16C49016550
:1037D000A06BFDF7B4FF002811D0A06B016D01B004
:1037E000BDE8F040084783060FD593060DD5204667
:1037F000BDE8F84001F00ABF2046FFF78EFFF8BD94
:103800002046FFF78AFF2564F8BD266B2023012E92
:1038100079D1C60677D5D60675D508684868009070
:103820004869400640D5A16B086840680004000C58
:10383000EAD0A28D8242E7D9E085C869B0F5807FE1
:103840002DD020680C3050E8001F21F4807140E832
:103850000012002AF5D12068143050E8001F21F032
:10386000010140E80012002AF5D12068143050E828
:10387000001F21F0400140E80012002AF5D184F831
:103880003E30256320680C3050E8001F21F0100105
:1038900040E80012002AF5D1A06BFDF707FFA08DCC
:1038A000E18D401A81B229E0A08DE18D401A81B2EC
:1038B000E08D0028A8D00029A6D020680C3050E860
:1038C000002F22F4907240E80026002EF5D12068E7
:1038D000143050E8002F22F0010240E80026002EAC
:1038E000F5D184F83E30256320680C3050E8002F75
:1038F00022F0100240E80023002BF5D12046FFF70C
:10390000D3FEF8BDFFE705062BD5150629D594F89B
:103910003D002128F5D1A068B0F5805F01D1206974
:10392000B0B1206A411C2162216800784860E08CB7
:10393000401E0004000CE084E3D12068C16821F03F
:103940008001C1602068C16841F04001C160D8E7D2
:10395000206A0088C0F308004860206A801C20624A
:10396000E5E74006CDD55006CBD5CA68204622F003
:103970004002CA6084F83D3000F04BFAC1E7000015
:10398000AD54000870B5040004D094F83D00002543
:1039900010B106E0012070BD84F83C50204600F0D4
:1039A00023F8242084F83D002068C16821F40051E8
:1039B000C160204601F08AFE2068016921F490412F
:1039C00001612068416921F02A0141612068C168D4
:1039D00041F40051C1602564202084F83D0084F842
:1039E0003E00002070BD00002DE9F04F87B0054675
:1039F00014216846FCF797FDBF48BE4F0221D5F859
:103A000000800024BC4B10380322DFF8F0C28E0681
:103A10004FF0080A4FF48069B84533D11F6847F466
:103A200000271F601B6803F400230593036843F01D
:103A300004030360006800F00400059090028DE824
:103A40001300CDE9032A69466046FEF70FF8AD4F33
:103A5000AB483860C7E90164C7E903497C61BC61D0
:103A6000FC613C6238467C62FDF74CFF08B1FDF713
:103A7000CAFDAF63002211463420BD63FEF762F930
:103A800034204FE0A04FB84551D11F6847F480174C
:103A90001F601B6803F480130593036843F004035D
:103AA0000360036803F004030593036843F008030D
:103AB000036000688B4600F0080005904FF48050CA
:103AC000CDE9000BCDE90242904657466946CDF854
:103AD00010A06046FDF7CAFF0420CDE9000BCDE938
:103AE0000248694604978948FDF7C0FF854F84481E
:103AF000603730383860C7E90164C7E903497C6141
:103B0000BC61FC613C6238467C62FDF7FBFE08B19B
:103B1000FDF779FDAF63002211463520BD63FEF746
:103B200011F93520FEF700F907B0BDE8F08FDFF896
:103B3000E0C1DFF8C4B107270BF1040BE04538D131
:103B4000DBF800C04CF0100CCBF800C0DBF8003004
:103B500003F010030593036843F00103036000685A
:103B600000F0010005904FF4C0608DE81300CDE92E
:103B7000032769466748FDF779FF624F6648C037FB
:103B80003860C7E90164C7E903497C61BC61FC6135
:103B90003C6238467C62FDF7B5FE08B1FDF733FDA7
:103BA000AF63002211462520BD63FEF7CBF8252028
:103BB000B8E7DFF868C1E04536D1D3F800C04CF46F
:103BC000003CC3F800C01B6803F40033059303688E
:103BD00043F008030360006800F0080005906020CF
:103BE0008DE81300CDE9032769464848FDF73EFFFD
:103BF00043484B4F48303860C7E90164C7E903497F
:103C00007C61BC61FC613C6238467C62FDF77AFEF7
:103C100008B1FDF7F8FCAF63002211462620BD6312
:103C2000FEF790F826207DE7DFF8F8C0E04538D1B0
:103C3000D3F800C04CF4802CC3F800C01B6803F418
:103C400080230593036843F008030360006800F0D5
:103C5000080005904FF440708DE81300CDE903276C
:103C600069462A48FDF702FF2D4F2548603718386E
:103C70003860C7E90164C7E903497C61BC61FC6144
:103C80003C6238467C62FDF73DFE08B1FDF7BBFCA7
:103C9000AF63002211462720BD63FEF753F82720AB
:103CA00040E7214B98457FF43FAFDBF8005045F0EB
:103CB0002005CBF80050DBF8003003F0200305931B
:103CC000036843F040030360006800F04000059083
:103CD0004FF484408DE81300CDE9032A6946134868
:103CE000FDF7C4FE002211464720FEF72BF84720BF
:103CF00018E70000004C0040403802400008024035
:103D000040600240DC07002000500040000C0240F0
:103D100000100140000002404064024000440040A6
:103D2000FC08002000480040001401400018024038
:103D300090F83E30202B0ED159B152B190F83C3062
:103D4000012B08D0012380F83C300023036301F0ED
:103D500043BD012070470220704770477047000044
:103D60002DE9F843044690F83D001F4616460D46DF
:103D700020284CD1C5B1BEB194F83C00012846D0F2
:103D8000012084F83C004FF00008C4F84080212056
:103D900084F83D00FDF768FFA6848146E684A068AC
:103DA000B0F5805F03D004E00120BDE8F88320690E
:103DB00028B12E465FF0000584F83C800EE0002616
:103DC000FAE78021204601F04FFDA0B9AEB116F808
:103DD000010B21684860E08C401EE084E08C4B467B
:103DE0004FF0000200970028EBD14FF04001204631
:103DF00001F03AFD30B10320D7E735F8020BC0F3EC
:103E00000800E6E7202084F83D000020CDE70220EE
:103E1000CBE77047F0B41B4908798A7890420ED1FD
:103E20004F79002205230324022501261648062F78
:103E300005D2DFE807F00306080A0E0C0260F0BCAA
:103E400070470660FBE70560F9E70460F7E7036089
:103E5000F5E70427076089790C480729EFD2DFE8E6
:103E600001F00D07060508040A00F0E7EDE7EAE7B0
:103E7000E7E70760E3E706210160E0E70260F0BCE6
:103E800002F022B850010020D0000020D400002011
:103E900031B50024B4F101059DF80000002809D0D7
:103EA0002B46012269460448FFF75AFF641CE4B21E
:103EB000032CF1D338BD00009807002070B50546EB
:103EC00000244FF47A762919334601220348FFF77C
:103ED00047FF641C285D0028F5D170BD98070020BD
:103EE00010B5254C206802F0D1F941EC100B23A14C
:103EF00053EC102B04F11800FCF73EFA04F1180003
:103F0000FFF7DCFFFF20FFF7C3FFC82104F1180013
:103F1000FCF709FB606802F0B9F941EC100B1CA139
:103F200053EC102B04F11800FCF726FA04F11800EA
:103F3000FFF7C4FFFF20FFF7ABFFC82104F1180013
:103F4000FCF7F1FAA06802F0A1F941EC100B15A101
:103F500053EC102B04F11800FCF70EFA04F11800D2
:103F6000FFF7ACFFFF20FFF793FF04F11800BDE857
:103F70001040C821FCF7D7BA840100207061676542
:103F8000312E74342E7478743D22252E3266220030
:103F900070616765312E74352E7478743D22252E3C
:103FA0003266220070616765312E74362E74787423
:103FB0003D22252E3266220010B5254CA06802F065
:103FC00065F941EC100B23A153EC102B04F1D40044
:103FD000FCF7D2F904F1D400FFF770FFFF20FFF7E0
:103FE00057FFC82104F1D400FCF79DFA606802F085
:103FF0004DF941EC100B1CA153EC102B04F1D40033
:10400000FCF7BAF904F1D400FFF758FFFF20FFF7DF
:104010003FFFC82104F1D400FCF785FA206802F0C4
:1040200035F941EC100B15A153EC102B04F1D40021
:10403000FCF7A2F904F1D400FFF740FFFF20FFF7DF
:1040400027FF04F1D400BDE81040C821FCF76BBA8B
:104050009001002070616765302E74362E7478747C
:104060003D22252E3266220070616765302E74373E
:104070002E7478743D22252E3266220070616765A9
:10408000302E74382E7478743D22252E326622002C
:1040900010B52C4CB2B0E06A01280DD12AA16846B7
:1040A000FCF76AF96846FFF709FFFF20FFF7F0FE0B
:1040B000C8216846FCF737FAE06A02280DD129A129
:1040C0006846FCF759F96846FFF7F8FEFF20FFF74E
:1040D000DFFEC8216846FCF726FAE06A03280DD106
:1040E00027A16846FCF748F96846FFF7E7FEFF207E
:1040F000FFF7CEFEC8216846FCF715FAE06A0428EF
:104100000DD126A16846FCF737F96846FFF7D6FEC1
:10411000FF20FFF7BDFEC8216846FCF704FAE06AFD
:1041200005280DD124A16846FCF726F96846FFF75B
:10413000C5FEFF20FFF7ACFEC8216846FCF7F3F987
:1041400032B010BDA400002070616765302E743558
:104150002E7478743D22E981BFE99A9CE6A8A1E516
:10416000BC8F220070616765302E74352E747874B0
:104170003D22E8B79FE99A8FE6A8A1E5BC8F22000F
:1041800070616765302E74352E7478743D22E5BEFB
:10419000AAE8BFB9E6A8A1E5BC8F220070616765F7
:1041A000302E74352E7478743D22E981A5E68EA7F1
:1041B000E6A8A1E5BC8F220070616765302E7435DA
:1041C0002E7478743D22E59E83E59CBEE58886E6E4
:1041D0008BA32200FEE7000070B53D4948782128F6
:1041E00074D33C4B9FED3C0A002200BF02EB42001F
:1041F00000EBC20008448D78C478AC4262D10479E7
:10420000512C04D0522C1ED0532C5BD139E050F8E5
:10421000054F1C60406858600020B3EE001A00BFD4
:1042200033F9104000EE904A01EB8004401CF8EE98
:10423000E00AC0B2032860EE800A60EE810AC4ED95
:104240000C0AEDD33EE050F8054F9C604068D86002
:10425000204C00209FED211A083400BF34F9105083
:1042600000EE905A01EB8005401CF8EEE00AC0B267
:10427000032860EE800A60EE810AC5ED0F0AEDD3D7
:1042800020E050F8054F1C6140685861114D002036
:104290009FED131A134C103535F9106000EE906A3B
:1042A00001EB8006F8EEE00A60EE800A60EE810A1B
:1042B000C6ED090A04EB8006401CC0B2C6ED000A38
:1042C0000328E9D3521CD2B2042A8FD370BD000058
:1042D0000801002000000020000000380000FA441F
:1042E00000003443900100201D4808B5016841F4E6
:1042F00000110160016801F400110091016841F4AE
:10430000800101600068002200F4800000901146E6
:104310000B20FDF717FD0B20FDF706FD00221146CF
:104320000C20FDF70FFD0C20FDF7FEFC00221146CE
:104330000D20FDF707FD0D20FDF7F6FC00221146CC
:104340001020FDF7FFFC1020FDF7EEFC00221146C7
:104350003A20FDF7F7FCBDE808403A20FDF7E4BC41
:10436000303802402DE9F04F87B014216846FCF741
:10437000DAF844480024016841F010010160016846
:1043800001F010010591016841F020010160016810
:1043900001F020010591016841F080010160016890
:1043A00001F080010591016841F00101016001689F
:1043B00001F001010591016841F00201016001680D
:1043C00001F002010591016841F0080101600168F6
:1043D00001F008010591016841F0400101600168A8
:1043E00001F040010591016841F00401016000689D
:1043F000DFF8948000F004004FF41065059000226F
:1044000029464046FDF72AFCDFF880904FF480767D
:10441000002231464846FDF721FCDFF874A048F23F
:10442000C017002239465046FDF718FCDFF864B08B
:10443000002298215846FDF711FC00950125CDE991
:104440000154694640460394FDF710FB0096CDE900
:104450000154694648460394FDF708FB0097CDE9EF
:104460000154694650460394FDF700FB98200090E4
:10447000CDE90154694658460394FDF7F7FA07B0B1
:10448000BDE8F08F303802400014024000100240B6
:1044900000180240000C02401FB50024154800948B
:1044A00001940294124903940160A721C0E9011408
:1044B0004FF6FF71C0E903148461FEF73BF808B1C1
:1044C000FDF7A1F80B48FEF7B4FC08B1FDF79BF827
:1044D0000120CDE90040029400226946054803947A
:1044E000FEF718FC002801D0FDF78DF81FBD000075
:1044F000004401406C0500201FB5002415480094BD
:1045000001940294124903940160A721C0E90114A7
:104510004FF6FF71C0E903148461FEF70BF808B190
:10452000FDF771F80B48FEF784FC08B1FDF76BF856
:104530000120CDE900400294002269460548039419
:10454000FEF7E8FB002801D0FDF75DF81FBD000075
:1045500000480140B405002010B58CB00024079439
:10456000089409941C2168460A94FBF7DCFF1F4855
:104570001D49016040F24731C0E9011440F2CF719A
:10458000C0E903148461FDF7D5FF08B1FDF73BF8DE
:104590004FF48050079007A91448FEF733F908B18B
:1045A000FDF731F81148FEF788FE08B1FDF72BF84A
:1045B0006020CDE900040294002269460B4804946F
:1045C000FEF715FE08B1FDF71EF8642001900422E5
:1045D00069460648FEF70BFE08B1FDF714F80348DC
:1045E000FEF790FD0CB010BD00180040FC05002047
:1045F00010B58CB024216846FBF795FF00241748BE
:10460000099415490A94C0E900144FF6FF71C0E9F6
:1046100002410461446184610320CDE9000401206A
:10462000CDE9020406210491CDE90540CDE9074119
:1046300069460A48FEF754F908B1FCF7E4FF09940B
:1046400009A906480A94FDF72DFF002801D0FCF7C0
:10465000DAFF0CB010BD0000000001402C03002068
:1046600010B58CB024216846FBF75DFF0024164886
:1046700009944FF080410A94C0E900144FF6FF718D
:10468000C0E90241046184610320CDE900040120F6
:10469000CDE9020406210491CDE90540CDE90741A9
:1046A00069460948FEF71CF908B1FCF7ACFF09940C
:1046B00009A905480A94FDF7F5FE002801D0FCF78A
:1046C000A2FF0CB010BD00007403002010B58CB028
:1046D00024216846FBF727FF002416480994144953
:1046E0000A94C0E900144FF6FF71C0E90241046169
:1046F00084610320CDE900040120CDE902040621F4
:104700000491CDE90540CDE9074169460948FEF726
:10471000E7F808B1FCF777FF099409A905480A945E
:10472000FDF7C0FE002801D0FCF76DFF0CB010BDF6
:1047300000040040BC03002010B58CB02421684662
:10474000FBF7F1FE00241648099414490A94C0E9C5
:1047500000144FF6FF71C0E9024104618461032037
:10476000CDE900040120CDE9020406210491CDE940
:104770000540CDE9074169460948FEF7B1F808B19F
:10478000FCF741FF099409A905480A94FDF78AFE40
:10479000002801D0FCF737FF0CB010BD0008004026
:1047A0000404002010B58EB00024079408940994E6
:1047B0000A940B941C2168460C94FBF7B4FE2D4818
:1047C0002B49016040F24731C0E9011440F2CF713A
:1047D000C0E9031480218161FDF7ACFE08B1FCF74C
:1047E00012FF4FF48050079007A92248FEF70AF8FD
:1047F00008B1FCF708FF1F48FEF75FFD08B1FCF7A2
:1048000002FF0B940BA91B480C94FDF74BFE08B15B
:10481000FCF7F9FE6020CDE900040294002269460D
:1048200014480494FEF7E3FC08B1FCF7ECFE5020BA
:104830000190042269460F48FEF7D9FC08B1FCF745
:10484000E2FE96200190082269460A48FEF7CFFC56
:1048500008B1FCF7D8FE0C2269460648FEF7C7FCF3
:1048600008B1FCF7D0FE0348FEF74CFC0EB010BDBB
:10487000000C00404C0400201CB500240E4800949D
:104880000C4901940160A721C0E9011442F20F71A3
:104890008461C160FDF74EFE08B1FCF7B4FE0094E0
:1048A000694605480194FDF7FDFD002801D0FCF79D
:1048B000AAFE1CBD001000409404002010B596B064
:1048C00000240F9410941194129413941C216846A0
:1048D0001494FBF728FE202107A8FBF724FE344898
:1048E0003249C0E9001444F2A011C0E9024180211C
:1048F0000461C0E90541FDF71DFE08B1FCF783FE28
:104900004FF480500F900FA92948FDF77BFF08B1A5
:10491000FCF779FE2648FEF7D0FC08B1FCF773FEE1
:10492000139413A922481494FDF7BCFD08B1FCF7B9
:104930006AFE6020CDE90004029403940494059477
:10494000002269461A480694FEF751FC08B1FCF7AC
:104950005AFE042269461648FEF749FC08B1FCF7E6
:1049600052FE082269461248FEF741FC08B1FCF7E6
:104970004AFE0C2269460E48FEF739FC08B1FCF7E6
:1049800042FE0794089409944FF400500A94CDE92C
:104990000B4007A906480E94FDF75AFD08B1FCF735
:1049A00032FE0348FEF7AEFB16B010BD0004014016
:1049B000DC04002010B58CB00024079408940994FE
:1049C0001C2168460A94FBF7AEFD20481E49016091
:1049D00040F28F61C0E901144FF4FA61C0E9031499
:1049E0008461FDF7A7FD08B1FCF70DFE4FF4805080
:1049F000079007A91548FDF705FF08B1FCF703FE6E
:104A00001248FEF75AFC08B1FCF7FDFD602000904B
:104A10006420CDE90104002269460C480494FEF7A5
:104A2000E6FB08B1FCF7EFFDC820019004226946BF
:104A30000648FEF7DCFB08B1FCF7E5FD0348FEF78E
:104A400061FB0CB010BD00000040014024050020B7
:104A500010B5114C0F480C2120604FF4E13060601C
:104A60000020A060E060C4E90401A061E06120468C
:104A7000FEF788FF08B1FCF7C6FD2068C16841F069
:104A80001001C160BDE81040082204490248FFF748
:104A90004FB90000004C00404406002054010020A3
:104AA00010B5114C0F480C2120604FF41650606077
:104AB0000020A060E060C4E90401A061E06120463C
:104AC000FEF760FF08B1FCF79EFD2068C16841F069
:104AD0001001C160BDE81040212204490248FFF7DF
:104AE00027B9000000500040880600200B0100207C
:104AF00010B5114C0F480C2120604FF4E13060607C
:104B00000020A060E060C4E90401A061E0612046EB
:104B1000FEF738FF08B1FCF776FD2068C16841F068
:104B20001001C160BDE81040082204490248FFF7A7
:104B3000FFB8000000100140CC06002079010020E1
:104B400010B5114C0F480C2120604FF4E13060602B
:104B50000020A060E060C4E90401A061E06120469B
:104B6000FEF710FF08B1FCF74EFD2068C16841F068
:104B70001001C160BDE81040092204490248FFF756
:104B8000D7B800000044004010070020600100205A
:104B900010B5114C0F480C2120604FF4E1306060DB
:104BA0000020A060E060C4E90401A061E06120464B
:104BB000FEF7E8FE08B1FCF726FD2068C16841F069
:104BC0001001C160BDE810400A2204490248FFF705
:104BD000AFB8000000480040540700206D010020DD
:104BE0000C4810B50A4901604FF4E13141600021E1
:104BF00081600C22C160C0E904128161C161FEF7CD
:104C0000C1FE002803D0BDE81040FCF7FCBC10BD7D
:104C100000140140980700202DE9F0414318664C2C
:104C2000081A9D1A8118801AE562C4E90C109818B8
:104C3000624E4FF48078A063002D08DD4FF0000233
:104C40004FF080013046FDF709F8012208E00BDA49
:104C50004FF001024FF080013046FCF7FFFF0022C9
:104C600041463046FCF7FAFF206B554D002808DD21
:104C70004FF000024FF040013046FCF7EFFF0122F9
:104C800008E00BDA4FF001024FF040013046FCF72C
:104C9000E5FF002280212846FCF7E0FF606B4FF41F
:104CA0000047002808DD4FF000024FF010012846B1
:104CB000FCF7D4FF012208E00BDA4FF001024FF0BD
:104CC00010012846FCF7CAFF002239463046FCF79F
:104CD000C5FFA16B3B48002906DD4FF000024146AD
:104CE000FCF7BCFF012206E009DA4FF00102414661
:104CF000FCF7B4FF002208212846FCF7AFFFFCF7C1
:104D000093FC2080FCF782FC40426080FCF7A8FC0A
:104D1000A080FCF797FCE0802748B4F900104C30E5
:104D2000E26A01F005F9E0632348B4F90210583053
:104D3000226B01F0FDF820641F48B4F904106430C0
:104D4000626B01F0F5F860641B48B4F9061070302E
:104D5000A26B01F0EDF8A064E36B002B00DA5B427C
:104D6000E363216C002900DA49422164626C002A65
:104D700000DA52426264002800DA40424FF4FA55E9
:104D8000A064AB4200DD2B46E363A94200DD294667
:104D90002164AA4200DD2A466264A84200DD28465A
:104DA000A064094C25686B63236899632168CA6312
:104DB00021680864BDE8F081280000200018024046
:104DC000000C024000100240DC04002070B50122FB
:104DD0000D4D140221462846FCF740FF0122D60261
:104DE00031462846FCF73AFF0520FCF72DFE00224D
:104DF00021462846FCF732FF31462846BDE8704080
:104E00000022FCF72BBF000000140240FEE7FEE783
:104E100010B51F48B2B001798278914235D130F88F
:104E2000051F1D4C49BA0AB21A490A8040881BA1C5
:104E300040BA20806846FBF79FFA6846FFF73EF8C5
:104E4000FF20FFF725F8C8216846FBF76CFBB4F993
:104E5000002017A16846FBF78FFA6846FFF72EF887
:104E6000FF20FFF715F8C8216846FBF75CFB15A18A
:104E70006846FBF781FA6846FFF720F8FF20FFF746
:104E800007F8C8216846FBF74EFB32B010BD0000A2
:104E900075010020A6000020A80000207061676551
:104EA000322E74352E7478743D2225642200000061
:104EB00070616765322E74362E7478743D222564D5
:104EC0002200000070616765322E74342E7478748D
:104ED0003D22E68890E58A9FC2B7E8AF86E588ABB9
:104EE0002200000070477047084864210068816311
:104EF0000748502203689A6303689622DA630068C1
:104F00000264044800684163FCF704BBFC05002010
:104F10004C040020240500200848642100688163B7
:104F20000748502203689A6303689622DA63006890
:104F30000264044800684163FCF7E4BAFC05002001
:104F40004C04002024050020FCF794BE30B593B03B
:104F500030216846FBF7E7FA14210CA8FBF7E3FAC7
:104F60001D480025016841F080510160006800F093
:104F7000805011901948016841F480410160006837
:104F8000022400F480401190012000900004019060
:104F90008001CDE9064008AA0420A82182E8130078
:104FA0000B906846FDF788F808B172B6FEE70CA9C9
:104FB0000F2081E831004FF4A0500F904FF4805043
:104FC000109005210CA8FCF78DFF002801D072B6C7
:104FD000FEE713B030BD00004038024000700040D2
:104FE0000248016841F470010160704788ED00E0FB
:104FF000104910B500204B780246092B18D10C79C6
:105000008B789C4214D14C799C4211D10B18401CD6
:105010001B7908281A44D2B2F8D3087B904207D1F2
:10502000C88800EE100A0448B8EE400A80ED010A74
:1050300010BD00005C0100208401002010B5044870
:10504000FDF7ACFFBDE810400248FDF7A7BF000028
:105050002C030020B405002010B50448FDF79EFF86
:10506000BDE810400248FDF799BF00002C03002066
:105070006C0500200148FDF791BF0000940400205A
:10508000F0B50268254C264D264E274F274B4FF092
:10509000804CA04209D0604507D0A84205D0B0425C
:1050A00003D0B84201D0984204D122F0700E4A6871
:1050B00042EA0E02A0421BD0604519D0A84217D088
:1050C000B04215D0B84213D0984211D0184DA84222
:1050D0000ED0184DA8420BD0174DA84208D0174D3E
:1050E000A84205D0164DA84202D0164DA84203D1C1
:1050F00022F44075CA682A434D6922F080022A438F
:1051000002608A68C2620A688262A04201D0984244
:1051100001D10969016301214161F0BD0000014035
:105120000004004000080040000C00400004014062
:105130000040014000440140004801400018004088
:10514000001C00400020004010B501F01F030121A9
:10515000046A99408C430462016A9A4011430162D7
:1051600010BD10B5846842EA032224F47F440A4348
:105170002243826010BD826822F070020A4342F02E
:105180000701816070470000F0B5026A22F0010259
:105190000262036A42688469124E24F073050C6847
:1051A0002C4323F002058B682B430D4DA84201D000
:1051B000B04205D123F00807CB683B4323F004033A
:1051C000A84201D0B04205D14D6922F44072154386
:1051D0008A692A4342608461496841630362F0BD81
:1051E0000000014000040140F0B5026A22F0100204
:1051F0000262026A436884690D6824F4E64444EA62
:1052000005248D6822F0200242EA05120F4D104E4F
:10521000A84201D0B04206D1CF6822F0800242EA13
:10522000071222F04002A84201D0B04207D14D69D6
:1052300023F4406343EA85038D6943EA85034360B1
:105240008461496881630262F0BD00000000014092
:1052500000040140F0B5026A22F480720262026A20
:105260004368C46922F4007224F073050C68124E7E
:105270002C438D6842EA05220E4DA84201D0B0426F
:1052800006D1CF6822F4006242EA072222F480624B
:10529000A84201D0B04207D14D6923F4405343EAFC
:1052A00005138D6943EA05134360C4614968C1630E
:1052B0000262F0BD000001400004014030B5026A06
:1052C00022F480520262046A4268C3690D6823F4C2
:1052D000E64343EA05238D6824F4005444EA053488
:1052E000084DA84202D0084DA84204D14D6922F4CD
:1052F000804242EA85124260C361496801640462E7
:1053000030BD0000000001400004014010B5036AF8
:10531000046A24F001040462846924F0F00444EA7D
:10532000021423F00A020A438461026210BD0000E5
:1053300070B5046A24F0010404628469056A154E9C
:10534000B04214D0B0F1804F11D0134EB0420ED005
:10535000124EB0420BD0124EB04208D0114EB042A5
:1053600005D0114EB04202D0104EB04203D124F00D
:105370000304144301E044F001041A0724F0F0048C
:1053800044EA126225F00A0301F00A01194382611E
:10539000016270BD000001400004004000080040B0
:1053A000000C004000040140004001400018004093
:1053B00010B5036A23F0100303628369046A23F4BF
:1053C000704343EA023224F0A00343EA01118261F0
:1053D000016210BD30B5046A24F0100404628469CF
:1053E000056A24F4407444EA022222F470444FF621
:1053F000FF7202EA03322243A02425F0A00304EA4C
:10540000011119438261016230BD000038B51048B6
:10541000006801680F4CC1F3001179B1016841685F
:105420000091016840680A48FEF73FF90A480068A1
:105430004068C0F108006070FEF7ECFC0822211DF6
:105440000348FEF775FCBDE838400148FEF766B931
:105450004406002050010020DC07002038B5104829
:10546000006801680F4CC1F3001179B1016841680F
:105470000091016840680A48FEF717F90A48006879
:105480004068C0F121006070FEF7A6FE2122E11CF9
:105490000348FEF74DFCBDE838400148FEF73EB931
:1054A00088060020080100203C08002010B5806B11
:1054B0000021C185C184FEF730F910BD70B5846B41
:1054C0002068406994F83D10C0F3C01000252129E0
:1054D00004D118B1E584204600F08AF820684069BC
:1054E00094F83E10C0F38010222904D118B1E5854C
:1054F000204600F056F8206C40F010002064204652
:10550000FEF70BF970BD10B50146806B096809689C
:10551000C9052FD40021C18501680C3151E8002F45
:1055200022F4807241E80023002BF5D10168143188
:1055300051E8002F22F0010241E80023002BF5D1B1
:105540000168143151E8002F22F0400241E80023A5
:10555000002BF5D1202180F83E10016B012909D1E3
:1055600001680C3151E8002F22F0100241E80023BD
:10557000002BF5D1016B012902D0FEF7EEFB10BD27
:10558000818DFEF791F810BD10B5806B016B01297C
:1055900002D0FEF7E3FB10BD818D4908FEF784F8C9
:1055A00010BD01680C3151E8002F22F4907241E8DF
:1055B0000023002BF5D10168143151E8002F22F0AF
:1055C000010241E80023002BF5D1016B012909D12B
:1055D00001680C3151E8002F22F0100241E800234D
:1055E000002BF5D1202180F83E1000210163704787
:1055F00001680C3151E8002F22F0C00241E800237D
:10560000002BF5D1202180F83D10704708B590F8A7
:105610003E10222901D0022008BD82684FF4805339
:105620009A4201D1016921B1816A9A421BD04AB1E3
:105630000AE00268816A5268C2F308020A80816A3D
:10564000891C08E0026972B10268526802F07F02A8
:105650000A70816A491C8162C18D491E0904090CC6
:10566000C18503D019E002685268F1E70168CA6891
:1056700022F02002CA600168CA6822F48072CA60FF
:1056800001684A6922F001024A61202180F83E1037
:10569000016B012903D0FEF760FB002008BD00214B
:1056A000016301680C3151E8002F22F0100241E83B
:1056B0000023002BF5D101680A68D20602D50A68DA
:1056C00049680091818DFDF7EFFFE6E770B504466C
:1056D00000680169E26821F44051114301612169C8
:1056E000A068E26908436169114308432168CA68F8
:1056F00049F20C639A430243CA6020684169A26977
:1057000021F440711143416131492068884202D03F
:105710003049884202D1FCF78FFC01E0FCF77CFCA9
:10572000E2690023192164253226B2F5004F626830
:1057300028D0A0FB0101930F9200FAF7A5FD0146C6
:10574000B0FBF5F06FF01802504301EB800006EB60
:105750000010B0FBF5F000F0F002B1FBF5F002EB49
:105760000012B1FBF5F06FF01803584301EB800015
:1057700006EB0010B0FBF5F000F00F0021681044BC
:10578000886070BDA0FB010192185B41FAF77CFDB7
:105790000146B0FBF5F00201B1FBF5F06FF0180324
:1057A000584301EB800006EBC000B0FBF5F000F0C1
:1057B000F80002EB4002B1FBF5F0584301EB80002A
:1057C00006EBC000B0FBF5F000F00700D6E70000E4
:1057D000001001400014014038B581628285002527
:1057E000134604460564222084F83E00A26B1B4841
:1057F000D063A26B1A481064A26B1A48D064A06BE5
:105800000A4605652168A06B091DFCF7E5F82068CC
:1058100001684068009084F83C5020680C3050E8E3
:10582000001F41F4807140E80012002AF5D1206881
:10583000143050E8001F41F0010140E80012002A36
:10584000F5D12068143050E8001F41F0400140E8D5
:105850000012002AF5D1002038BD000007550008CD
:1058600089550008BD5400082DE9F04198461746B7
:105870000E460446069D27E0681C25D02DB1FCF796
:10588000F3F9A0EB0800A8421ED920680C3050E8BC
:10589000001F21F4D07140E80012002AF5D12068E1
:1058A000143050E8001F21F0010140E80012002AE6
:1058B000F5D1202084F83D0084F83E00002084F8D3
:1058C0003C000320BDE8F0812068006836EA000053
:1058D00004D00020B842CFD00020F3E70120F9E740
:1058E00038B51048006801680F4CC1F3001179B158
:1058F000016841680091016840680A48FDF7D5FEDB
:105900000A4800684068C0F108006070FFF780FA3C
:105910000822211D0348FEF70BFABDE83840014874
:10592000FDF7FCBECC060020750100209C0800207D
:1059300038B51048006801680F4CC1F3001179B107
:10594000016841680091016840680A48FDF7ADFEB2
:105950000A4800684068C0F109006070FFF748FB22
:105960000922211D0348FEF7E3F9BDE8384001484C
:10597000FDF7D4BE100700205C010020FC080020C9
:1059800038B51048006801680F4CC1F3001179B1B7
:10599000016841680091016840680A48FDF785FE8A
:1059A0000A4800684068C0F10A00607000F05AF8C8
:1059B0000A22211D0348FEF7BBF9BDE83840014823
:1059C000FDF7ACBE54070020690100205C090020EF
:1059D0000148FDF7A3BE000098070020FEE7002164
:1059E0000A464318491C89B21A710829F9D355216E
:1059F0008170C17002704270704700210A464318DE
:105A0000491C89B2DA702129F9D3552181700270BD
:105A10004270704700210A464318491C89B21A7126
:105A20000829F9D355218170027042707047002116
:105A30000A464318491C89B21A710929F9D3592118
:105A4000817002704270704700210A464318491C59
:105A500089B21A710A29F9D35521817002704270F6
:105A60007047000010B53748B2B001798278914292
:105A700066D130F8051F344C49BA09B221804288FA
:105A8000324B52BA01291A808088314A40BA1080BC
:105A90000DD130A16846FAF76FFC6846FEF70EFAA2
:105AA000FF20FEF7F5F9C8216846FAF73CFD20888B
:105AB00002280DD12EA16846FAF75EFC6846FEF773
:105AC000FDF9FF20FEF7E4F9C8216846FAF72BFD3F
:105AD000208803280DD12DA16846FAF74DFC6846B1
